:03000000020030CB
:03000B000202727C
:10003000D283D282D281D280C285D295D294D293F9
:10004000756D121203CA1206B41203EC1206A11245
:10005000040E1206B4120430D28512068EC2831228
:1000600006A1C2821206A1C2811206A1C280C28567
:1000700012068EC285D2831206B4D2821206B4D280
:10008000811206B4D2801206A1D2851206B47E0077
:1000900012049675600075610075620012033112DA
:1000A00003781202BB8560408561427E001204B86D
:1000B00075600075610075620012033112037812D9
:1000C00002BB8560418561437E001204DA756000E1
:1000D0007561007562001203311203781202BB854C
:1000E00060448561467E001204FC75600075610005
:1000F0007562001203311203781202BB85604585D8
:1001000061477E0012051E75600075610075620012
:100110001203311203781202BB85604885614A7E62
:1001200000120540756000756100756200120331B0
:100130001203781202BB85604985614B7E0012056F
:1001400062756000756100756200120331120378F8
:100150001202BB85604C85614E7E0012058475607D
:10016000007561007562001203311203781202BB40
:1001700085604D85614F1205EA7E007560007561EE
:10018000007562001203311203781202BB1205A639
:1001900012068EAA6D75A882758901758AB0758C54
:1001A0003CD28C1205C81201CD2093FA75A800C26A
:1001B0008E12060C12062E1206A130950D309402F6
:1001C00080F812065012068E80C902004F854063E7
:1001D000854265854164854366120233400280048E
:1001E000C2838002D28385446385466585456485E4
:1001F000476612023340028004C2828002D28285A6
:100200004863854A65854964854B6612023340021E
:100210008004C2818002D281854C63854E65854D04
:1002200064854F6612023340028004C2808002D28D
:10023000800022E563B56010E565B561028023505A
:100240001DE564B5601480075014E564B5600BE5E6
:1002500066B5610280084006800840028004C2D76B
:100260008004D2D780007400F563F564F565F56607
:100270000022C28CC28D1A758AB0758C3CBA0002FD
:100280005185D28C32AB62AC61AD60BB3B00500398
:100290000B80167B00BC3B0050030C800C7C00BD27
:1002A000170050030D80027D008B628C618D60AA67
:1002B0006DB2851203311203780022309508309414
:1002C0001230932680F51206B4BE17047E0080100B
:1002D0000E800D1206B4BE00047E1780031E80003F
:1002E0008E6012033112037880D1C2851206A1D22A
:1002F000857E001203311203783095083094123055
:10030000932680F51206B4BE3B047E0080100E805A
:100310000D1206B4BE00047E3B80031E80008E6179
:1003200012033112037880D1C2851206A1D2850052
:1003300022E56075F00A8485F068F567E56175F07F
:100340000A8485F06AF569E56275F00A8485F06CC7
:10035000F56BE5674430F567E5684430F568E569B5
:100360004430F569E56A4430F56AE56B4430F56B75
:10037000E56C4430F56C0022900840E4931206725C
:100380001206C7A3600280F3E5671206801206C753
:10039000E5681206801206C7743A1206801206C774
:1003A000E5691206801206C7E56A1206801206C7C2
:1003B000743A1206801206C7E56B1206801206C751
:1003C000E56C1206801206C70022900835E49312ED
:1003D00006721206C7A3600280F39006E1E493124E
:1003E00006801206C7A3600280F3002290083BE457
:1003F000931206721206C7A3600280F39006F2E41D
:10040000931206801206C7A3600280F300229008B0
:1004100035E4931206721206C7A3600280F39007B8
:1004200003E4931206801206C7A3600280F3002241
:1004300090083BE4931206721206C7A3600280F391
:10044000900714E4931206801206C7A3600280F39B
:100450000022900835E4931206721206C7A36002C8
:1004600080F3900725E4931206801206C7A360026A
:1004700080F3002290083BE4931206721206C7A391
:10048000600280F3900736E4931206801206C7A339
:10049000600280F30022900835E49312067212067F
:1004A000C7A3600280F3900747E493120680120608
:1004B000C7A3600280F30022900835E4931206720D
:1004C0001206C7A3600280F3900758E493120680D7
:1004D0001206C7A3600280F30022900835E493124D
:1004E00006721206C7A3600280F3900769E49312B4
:1004F00006801206C7A3600280F30022900835E44C
:10050000931206721206C7A3600280F390077AE482
:10051000931206801206C7A3600280F3002290089F
:1005200035E4931206721206C7A3600280F39007A7
:100530008BE4931206801206C7A3600280F30022A8
:10054000900835E4931206721206C7A3600280F386
:1005500090079CE4931206801206C7A3600280F302
:100560000022900835E4931206721206C7A36002B7
:1005700080F39007ADE4931206801206C7A36002D1
:1005800080F30022900835E4931206721206C7A386
:10059000600280F39007BEE4931206801206C7A3A0
:1005A000600280F30022900835E49312067212066E
:1005B000C7A3600280F39007CFE49312068012066F
:1005C000C7A3600280F30022900835E493120672FC
:1005D0001206C7A3600280F39007E0E4931206803E
:1005E0001206C7A3600280F30022900835E493123C
:1005F00006721206C7A3600280F39007F1E493121B
:1006000006801206C7A3600280F30022900835E43A
:10061000931206721206C7A3600280F3900802E4E8
:10062000931206801206C7A3600280F3002290088E
:100630003BE4931206721206C7A3600280F390088F
:1006400013E4931206801206C7A3600280F300220F
:10065000900835E4931206721206C7A3600280F375
:10066000900824E4931206801206C7A3600280F368
:100670000022F5A0C2B4C2B6D2B51206C7C2B522D6
:10068000F5A0D2B4C2B6D2B51206C7C2B52275352E
:10069000147536FF7537FFD537FDD536F7D535F1EB
:1006A0002275350A7536FF7537FFD537FDD536F714
:1006B000D535F1227535047536FF7537FFD537FD11
:1006C000D536F7D535F1227538FFD538FD22753589
:1006D000027536FF7537FFD537FDD536F7D535F1BD
:1006E0002220202044455349474E20414E4420209B
:1006F0002000434F4E535452554354494F4E204FC0
:10070000462000454C454354524943414C204C4FF0
:1007100041445300504C414E4E494E47205359538B
:1007200054454D20002020202054494D4520495358
:100730002020202020002020202030303A30303A65
:100740003030202020200020534554204C4F41447D
:100750002031204F4E20200020534554204C4F4143
:10076000442031204F4646200020534554204C4F12
:1007700041442032204F4E20200020534554204C2D
:100780004F41442032204F464620002053455420FC
:100790004C4F41442033204F4E20200020534554DD
:1007A000204C4F41442033204F46462000205345E3
:1007B00054204C4F41442034204F4E2020002053E1
:1007C0004554204C4F41442034204F4646200020C1
:1007D0002053455454494E4720444F4E4520200055
:1007E0002020205448452054494D4520495320207D
:1007F0000052455345542054484520434C4F434BE9
:100800002000202053595354454D20524553455400
:100810003F20002020205945532020202020204E1A
:100820004F202000494E56414C494420434F4D4DE6
:10083000414E44200038060E80010038060EC000EC
:0508400038060CC400A5
:00000001FF
